:100000000C9446000C9465000C9465000C946500FB
:100010000C9465000C9465000C9465000C946500CC
:100020000C9465000C9465000C9465000C946500BC
:100030000C9465000C9492000C9465000C9465007F
:100040000C9465000C9465000C9465000C9465009C
:100050000C9465000C9465000C9465000C9465008C
:100060000C9465000C9465000C9465000C9465007C
:100070000C9465000C9465000C9465000C9465006C
:100080000C9465000C9465000C94650011241FBE4F
:10009000CFEFD0E4DEBFCDBF11E0A0E0B1E0EEEAEB
:1000A000F2E000E00BBF02C007900D92A430B10750
:1000B000D9F711E0A4E0B1E001C01D92AB30B10767
:1000C000E1F70E943B010C9455010C9400008BE079
:1000D000809381008DE790E0909389008093880061
:1000E00082E080936F0010928500109284008091CE
:1000F000000190910101A0910201B0910301809350
:10010000060190930701A0930801B09309018FB7EE
:1001100080688FBF089510928100089581E08093D8
:100120000A0108951F920F920FB60F9211240BB679
:100130000F922F933F934F935F936F937F938F9380
:100140009F93AF93BF93EF93FF938091060190919C
:100150000701A0910801B09109010197A109B10916
:100160008093060190930701A0930801B0930901C1
:10017000892B8A2B8B2B91F40E948E008091000199
:1001800090910101A0910201B091030180930601B9
:1001900090930701A0930801B0930901FF91EF919B
:1001A000BF91AF919F918F917F916F915F914F918F
:1001B0003F912F910F900BBE0F900FBE0F901F908D
:1001C0001895609300017093010180930201909350
:1001D00003016093060170930701809308019093D7
:1001E0000901089520B1209521708130910591F089
:1001F0001CF4009741F01CC08230910581F08330DF
:10020000910591F015C0109204011092050181E052
:1002100090E00EC0222361F082E090E009C021113D
:1002200007C083E090E004C0222311F080E090E05A
:10023000009721F08130910521F019C0109205013D
:1002400016C025B120930501211104C021E020939F
:1002500005010DC04FEF420F423020F4220F2093D2
:10026000050105C0243019F421E0209305012091F7
:10027000050125B9089511B88FEF82B984B915B871
:100280006CE271E080E090E00E94E1000E94670073
:1002900020E030E0C9010E94F2009C0190910A0127
:0E02A0009923E1F310920A01F5CFF894FFCFF5
:0402AE00010000004B
:00000001FF
