:100000000C9446000C9465000C9465000C946500FB
:100010000C9465000C9465000C9465000C946500CC
:100020000C9465000C9465000C9465000C946500BC
:100030000C9465000C9492000C9465000C9465007F
:100040000C9465000C9465000C9465000C9465009C
:100050000C9465000C9465000C9465000C9465008C
:100060000C9465000C9465000C9465000C9465007C
:100070000C9465000C9465000C9465000C9465006C
:100080000C9465000C9465000C94650011241FBE4F
:10009000CFEFD0E4DEBFCDBF11E0A0E0B1E0E8E6F5
:1000A000F2E000E00BBF02C007900D92A430B10750
:1000B000D9F711E0A4E0B1E001C01D92AA30B10768
:1000C000E1F70E941A010C9432010C9400008BE0BD
:1000D000809381008DE790E0909389008093880061
:1000E00082E080936F0010928500109284008091CE
:1000F000000190910101A0910201B0910301809350
:10010000050190930601A0930701B09308018FB7F2
:1001100080688FBF089510928100089581E08093D8
:10012000090108951F920F920FB60F9211240BB67A
:100130000F922F933F934F935F936F937F938F9380
:100140009F93AF93BF93EF93FF938091050190919D
:100150000601A0910701B09108010197A109B10919
:100160008093050190930601A0930701B0930801C5
:10017000892B8A2B8B2B91F40E948E008091000199
:1001800090910101A0910201B091030180930501BA
:1001900090930601A0930701B0930801FF91EF919E
:1001A000BF91AF919F918F917F916F915F914F918F
:1001B0003F912F910F900BBE0F900FBE0F901F908D
:1001C0001895609300017093010180930201909350
:1001D00003016093050170930601809307019093DA
:1001E00008010895009759F08130910551F481E09C
:1001F00090910401933009F480E090E002C081E026
:1002000090E0009721F08130910529F00895109237
:10021000040115B80895209104012F5F2093040173
:1002200025B1211103C021E025B9089525B1220F80
:1002300025B908958FEF84B915B868EE73E080E0B2
:1002400090E00E94E1000E94670020E030E0C901D8
:100250000E94F2009C01909109019923E1F3109210
:080260000901F5CFF894FFCF6E
:040268000100000091
:00000001FF
